:100000000C9472000C9493000C9493000C94930045
:100010000C9493000C9493000C9493000C94930014
:100020000C9493000C9493000C9493000C94930004
:100030000C9493000C9493000C9493000C949300F4
:100040000C9493000C9493000C9493000C949300E4
:100050000C9493000C9493000C9493000C949300D4
:100060000C9493000C9483020C945F030C94930003
:100070000C9493000C9493000C9493000C949300B4
:100080000C9493000C9493000C9493000C949300A4
:100090000C9493000C9493000C9493000C94930094
:1000A0000C9493000C9493000C9493000C94930084
:1000B0000C9493000C9493000C9493000C94930074
:1000C0000C9493000C9493000C9493000C94930064
:1000D0000C9493000C9493000C9493000C94930054
:1000E0000C94930011241FBECFEFD1E2DEBFCDBF31
:1000F00000E00CBF13E0A0E0B2E0EEEEF5E100E0BE
:100100000BBF02C007900D92A834B107D9F715E0D4
:10011000A8E4B3E001C01D92AC36B107E1F70E943C
:1001200095000C94F60A0C940000AF92BF92CF9207
:10013000DF92EF92FF920F931F93CF93DF9334E000
:10014000E32E00E021E042E063E080E390E00E94E3
:10015000F100EE24E39428E040E05BE460E070E02E
:1001600080E00E94BF0178940E947E0260E080E0FF
:100170000E94C80280E092E00E946D0283E092E05B
:100180000E9460020E94310220E0A22E22E0B22EE4
:100190009EE1C92E92E0D92E84E2E82E82E0F82E6C
:1001A00008E212E0C8E5D5E062E080E00E94C80203
:1001B000C5010E946D02C6010E946002C7010E9433
:1001C0006002C8010E946D020E94A20190E040E11D
:1001D000BC01CE010E9404040E9460020E94310210
:1001E000E3CFEF920F93CF93DF93DC0160934F0344
:1001F000009350032093510340935203E092530322
:10020000409150038091510360915203E091530358
:1002100021E030E0E90102C0CC0FDD1F8A95E2F752
:10022000CE01E90102C0CC0FDD1F4A95E2F78C2B0D
:10023000A90102C0440F551F6A95E2F7842BB9014A
:1002400002C0660F771FEA95E2F7862B8C934C91DC
:1002500080914F03E90102C0CC0FDD1F8A95E2F7C0
:10026000CE01809548234C93FD018191F0934E037C
:10027000E0934D038091530302C0220F331F8A95F0
:10028000E2F7FD012183DF91CF910F91EF90089567
:10029000A0914D03B0914E034C9190E060915203B8
:1002A00070915103509150039C012170307002C035
:1002B000220F331F5A95E2F7422B9C0124703070B5
:1002C000359527953595279502C0220F331F6A95DE
:1002D000E2F7422B827090709595879502C0880F47
:1002E000991F7A95E2F7482B4C934C9180915303D8
:1002F00021E030E0B90102C0660F771F8A95E2F76E
:10030000CB01809584238C93FD013297F0934C03AD
:10031000E0934B03808140914F0390E002C095959C
:1003200087954A95E2F7817080934A038091530341
:1003300002C0220F331F8A95E2F72C9380914A0363
:1003400090E008950F931F931091490300E00CC0B3
:10035000802F0E94480190E0002E02C0880F991F54
:100360000A94E2F7182B0F5F083090F310934903BB
:1003700000934803812F90E01F910F910895EF9211
:100380000F93CF93DF933E2D833060F490E0E3E052
:10039000880F991FEA95E1F780549F4F90933E0292
:1003A00080933D02A0913D02B0913E02FD0182E0AA
:1003B000819388E9ED018983293010F08CE98983E4
:1003C000EF012196313019F48181877F04C03230EA
:1003D00019F4818188608183013019F488818063F8
:1003E00006C08881023011F4806201C08F7C88834E
:1003F00088818F7388832296D0933E02C0933D02FA
:100400002297CB01BA010E9445089B01AC0160E034
:1004100074E284E79BE40E94070720E030E040E0BC
:100420005EE30E94080620E030E040E85FE30E94BF
:10043000AA050E943E046A83DF91CF910F91EF904D
:100440000895982F8091C00085FFFCCF9093C6003F
:1004500008958091C00087FFFCCF8091C60090E096
:10046000089590915605809157059817D1F3E09122
:100470005705F0E0EA5AFB4F8081909157059F5F46
:100480009093570590E00895482F2091550480914E
:10049000540430E08F5F90E028173907B1F3E09102
:1004A0005404F0E0EC5AFC4F4083809154048F5F79
:1004B000809354048091C10080628093C1000895AC
:1004C000CF93DF93EC0103C00E9444022196888100
:1004D0008823D1F7DF91CF9108950F931F938C015B
:1004E0008BE292E00E946002C8010E94600280E3F9
:1004F00092E00E9460021F910F91089585E392E0BF
:100500000E94600208951F920F920FB60F9211245D
:100510002F933F938F939F93EF93FF9320915705D2
:100520008091560530E08F5F90E02817390769F019
:10053000E09156058091C600F0E0EA5AFB4F8083B7
:10054000809156058F5F80935605FF91EF919F91A3
:100550008F913F912F910F900FBE0F901F90189584
:10056000E1ECF0E0808180628083089590915605EF
:100570008091570520E030E0981711F021E030E03D
:10058000C9010895E1ECF0E080818F7D80830895BA
:10059000CF92DF92EF92FF920F931F93CF93DF934F
:1005A000CDB7DEB725970FB6F894DEBF0FBECDBF2F
:1005B000C82E062F7E010894E11CF11C85E0F7018E
:1005C00011928A95E9F78AE392E00E94600210E0B6
:1005D0004AE0B801C7010E940404C7010E946002FA
:1005E0008BE30E944402DD244AE0B601C7010E9469
:1005F0000404C7010E94600286E60E944402259618
:100600000FB6F894DEBF0FBECDBFDF91CF911F9123
:100610000F91FF90EF90DF90CF900895FC0107C0FD
:100620008091C00085FFFCCF9093C60031969081E9
:100630009923B1F70895FC0120E08091C00087FF65
:10064000FCCF9091C600892F80528F3550F4243111
:1006500040F48091C00085FFFCCF9093C6002F5FCF
:1006600091939830D1F4222341F312928091C000EB
:1006700085FFFCCF88E08093C6008091C00085FF95
:10068000FCCF80E28093C6008091C00085FFFCCF44
:10069000215088E08093C600D0CF9D3071F6108243
:1006A0008091C00085FFFCCF8AE08093C6008091D6
:1006B000C00085FFFCCF8DE08093C60008951F9297
:1006C0000F920FB60F9211248F939F93EF93FF9386
:1006D0009091540480915504981771F0E09155045D
:1006E000F0E0EC5AFC4F80818093C6008091550465
:1006F0008F5F8093550405C08091C1008F7D8093EA
:10070000C100FF91EF919F918F910F900FBE0F90BD
:100710001F9018950F931F93CF93DF93EC0100E088
:1007200090915605809157059817D1F3E0915705A0
:10073000F0E0EA5AFB4F1081809157058F5F80935C
:100740005705812F80528F3538F4043128F4812FDA
:100750000E9444020F5F1993183071F4002301F3D3
:1007600001501A9288E00E94440280E20E944402F2
:1007700088E00E944402D4CF1D3091F618828AE0AE
:100780000E9444028DE00E944402DF91CF911F91AC
:100790000F910895FC0140E050E014C0892F805370
:1007A0008A3098F4892F90E0C0979A0173E0220F65
:1007B000331F7A95E1F7440F551F420F531F480F1F
:1007C000591F31969081992349F7CA0108959C01D8
:1007D000DC0170E061507040FC01E60FF71F6F5FB5
:1007E0007F4F40E050E006C09C9181818D934F5F28
:1007F0005F4F91833197CB01841B950B019748176D
:10080000590794F3C9010895EF92FF920F931F9334
:10081000CF93DF93EC019B01672B21F480E3888366
:10082000198224C000E010E0E42EFF24C901B701C2
:100830000E94AB0A8A30910514F0895C01C0805D8A
:10084000FE01E00FF11F80830F5F1F4FC901B70149
:100850000E94AB0A9B01672B49F7FE01E00FF11FD5
:100860001082602FCE010E94E703EC01CE01DF91E0
:10087000CF911F910F91FF90EF900895EF92FF920B
:100880000F931F937B018C0120E030E040E05FE498
:100890000E94BC0788237CF020E030E040E05FE469
:1008A000C801B7010E94AA050E94F207605070407B
:1008B0008040904804C0C801B7010E94F2071F9110
:1008C0000F91FF90EF900895A0E0B0E0EAE6F4E029
:1008D0000C94C10A2C015B01FA01DC019C9192305D
:1008E00008F432C1EB018881823008F42CC19430C5
:1008F00071F4843009F028C1F2019181898198173F
:1009000009F422C11FE3412E12E0512E1DC1843093
:1009100009F419C18230A9F4923009F015C1CA0155
:10092000A20128E0DA010D90AD01EC010992CE019F
:100930002150C1F7E5018981E201998189238183F1
:1009400000C1923009F4FFC0E201CA80DB80EB01F4
:100950008A819B81E2012C813D814E815F81EB0187
:10096000EC80FD800E811F81B601681B790BDB01D5
:1009700077FF03C0709561957F4F603271050CF071
:100980005DC01A161B065CF566247724430181E0DE
:1009900090E0A0E0B0E0062E04C0880F991FAA1FC7
:1009A000BB1F0A94D2F70197A109B1098E219F219B
:1009B000A023B1230097A105B10529F0B1E06B2E6A
:1009C000712C812C912C04C016950795F794E7940F
:1009D0006A95D2F7E628F728082919293BC0AB2BDE
:1009E000C9F1C60ED71E66247724430181E090E04A
:1009F000A0E0B0E0062E04C0880F991FAA1FBB1FFD
:100A00000A94D2F70197A109B10982239323A42361
:100A1000B5230097A105B10529F0A1E06A2E712C3C
:100A2000812C912C04C056954795379527956A954A
:100A3000D2F726293729482959290CC08C159D053C
:100A400034F06C0120E030E040E050E003C0EE24E0
:100A5000FF248701E2019981E5018981981709F452
:100A600043C0992339F0E21AF30A040B150BA801CD
:100A7000970104C02E193F09400B510B57FD08C0C8
:100A80001182D382C28224833583468357831DC05B
:100A900081E08183D382C28288279927DC01821B6F
:100AA000930BA40BB50B84839583A683B7830DC0EA
:100AB000220F331F441F551F2483358346835783DA
:100AC000828193810197938382832481358146813A
:100AD0005781DA01C9010197A109B1098F5F9F4FC1
:100AE000AF4FBF4328F30BC09183D382C2822E0D38
:100AF0003F1D401F511F248335834683578383E066
:100B0000808324813581468157815523D4F4C901DE
:100B1000AA2797FDA095BA2F81709070A070B07031
:100B20005695479537952795822B932BA42BB52B5C
:100B300084839583A683B78382819381019693836F
:100B400082832F0101C02501C201E0E1CDB7DEB7EC
:100B50000C94DD0AA0E2B0E0E0EBF5E00C94CB0AE7
:100B600069837A838B839C832D833E834F8358874D
:100B700009E0E02EF12CEC0EFD1EB701CE0101962E
:100B80000E94E5098E010F5E1F4FB801CE01059648
:100B90000E94E5098A8991E089278A8BAE01475E28
:100BA0005F4FB801C7010E9464040E940509E6E096
:100BB000A0960C94E70AA0E2B0E0E1EEF5E00C9418
:100BC000CB0A69837A838B839C832D833E834F83F7
:100BD000588789E0E82EF12CEC0EFD1EB701CE01FE
:100BE00001960E94E5098E010F5E1F4FB801CE01EC
:100BF00005960E94E509AE01475E5F4FB801C70147
:100C00000E9464040E940509E6E0A0960C94E70A9D
:100C1000A0E2B0E0EEE0F6E00C94C10A69837A83CA
:100C20008B839C832D833E834F83588799E0E92EE5
:100C3000F12CEC0EFD1EB701CE0101960E94E509D4
:100C40008E010F5E1F4FB801CE0105960E94E50987
:100C50009985923088F089898230C0F0943019F4F7
:100C6000823029F009C0843029F4923079F46FE39E
:100C700072E0C6C0923041F420E09A858A899813C8
:100C800021E02A87B701BCC0823041F420E09A8578
:100C90008A89981321E02A8BB801B2C0CD84DE8402
:100CA000EF84F8880D891E892F89388D882499242E
:100CB000540140E050E060E070E0442455243201EB
:100CC000E0E0F0E0C60181709070892BD9F0800ED1
:100CD000911EA21EB31EDB01CA01840D951DA61D27
:100CE000B71D40E050E060E070E080169106A2067B
:100CF000B30620F441E050E060E070E0480F591F77
:100D00006A1F7B1F440C551C661C771C37FF08C0EC
:100D100081E090E0A0E0B0E0482A592A6A2A7B2AC4
:100D20003196E032F10549F0000F111F221F331FE9
:100D3000F694E794D794C794C5CF8B899C892B856B
:100D40003C85820F931F02969C8F8B8F1A8E9A85FB
:100D50008A89981711F081E08A8F2B8D3C8D17C0FE
:100D6000CA0181709070892B61F0B694A794979412
:100D7000879480E090E0A0E0B0E8882A992AAA2A27
:100D8000BB2A76956795579547952F5F3F4F77FD1F
:100D9000E7CFC9010BC0440F551F661F771FB7FC73
:100DA0004160880C991CAA1CBB1C01974030A0E034
:100DB0005A07A0E06A07A0E47A0768F39C8F8B8F3C
:100DC000DB01CA018F779070A070B07080349105FC
:100DD000A105B10561F447FD0AC081149104A10485
:100DE000B10429F0405C5F4F6F4F7F4F40784D8FCB
:100DF0005E8F6F8F78A383E0898FBE01675E7F4F20
:100E0000CB010E940509E0E1A0960C94DD0AA8E15F
:100E1000B0E0EDE0F7E00C94C70A69837A838B8336
:100E20009C832D833E834F8358878E01075F1F4F1E
:100E3000B801CE0101960E94E50981E1E82EF12C6E
:100E4000EC0EFD1EB701CE0105960E94E50939851D
:100E50003230F8F02989223010F4B70186C08A8533
:100E60009A8989278A87343011F0323029F4321771
:100E700081F46FE372E079C0243039F41D861E8658
:100E80001F86188A1C861B8604C0223021F484E049
:100E90008987B8016AC06B857C858B899C89681BB2
:100EA000790B7C876B872D853E854F8558898D8989
:100EB0009E89AF89B88D281739074A075B0740F428
:100EC000220F331F441F551F615070407C876B8772
:100ED000A12CB12CC12C10E4D12EEE24FF248701CB
:100EE00060E070E0281739074A075B0740F0EA28FE
:100EF000FB280C291D29281B390B4A0B5B0BD694A8
:100F0000C794B794A794220F331F441F551F6F5FD8
:100F10007F4F6F31710531F7D801C7018F7790701E
:100F2000A070B07080349105A105B105B9F4E7FC5B
:100F300015C0211531054105510581F080E490E08F
:100F4000A0E0B0E0E80EF91E0A1F1B1F80E89FEF2B
:100F5000AFEFBFEFE822F9220A231B23ED86FE86BE
:100F60000F87188BBE01675F7F4FCB010E94050979
:100F7000EAE068960C94E30AA8E1B0E0E2ECF7E05E
:100F80000C94CB0A69837A838B839C832D833E8365
:100F90004F83588789E0E82EF12CEC0EFD1EB70137
:100FA000CE0101960E94E5098E010F5E1F4FB80128
:100FB000CE0105960E94E5098985823060F0898915
:100FC000823048F0B801C7010E94550A282F332704
:100FD00027FD309502C02FEF3FEFC901E6E068968C
:100FE0000C94E70AACE0B0E0E8EFF7E00C94CF0A2D
:100FF00069837A838B839C83BE016B5F7F4FCE01B5
:1010000001960E94E5098D818230A9F1823098F124
:10101000843021F48E81882359F40FC02F813885C4
:1010200037FD29C06E812F31310564F0662329F028
:1010300020E030E040E050E822C02FEF3FEF4FEFDC
:101040005FE71DC08EE190E0821B930B29853A85F6
:101050004B855C8504C056954795379527958A95AD
:10106000D2F7662361F050954095309521953F4F1A
:101070004F4F5F4F04C020E030E040E050E0CA0135
:10108000B901E2E02C960C94EB0AA8E0B0E0EBE4A6
:10109000F8E00C94C90A7B018C016115710581058A
:1010A000910519F482E089835AC083E089838EE137
:1010B000C82ED12CDC82CB82ED82FE820F83188772
:1010C000C801B7010E94B808BC016150704077FFA9
:1010D00033C0EE27FF27E61BF70B20E030E040E0AF
:1010E00050E081E090E0A0E0B0E00E2E04C0880F58
:1010F000991FAA1FBB1F0A94D2F70197A109B10932
:101100008E219F21A023B1230097A105B10521F0D5
:1011100021E030E040E050E004C016950795F794D8
:10112000E794EA95D2F72E293F29402B512B2D83A6
:101130003E834F8358870FC06115710581F0062EDD
:1011400004C0EE0CFF1C001F111F0A94D2F7ED82A1
:10115000FE820F831887C61AD70ADC82CB821A82D6
:10116000CE0101960E940509E8E028960C94E50A54
:10117000EF92FF920F931F939B01AC01203080E010
:10118000380781E0480780E0580780F42F3F310599
:101190004105510509F020F4EE24FF24870119C010
:1011A00068E0E62EF12C012D112D13C0203080E0D7
:1011B000380780E0480781E0580730F490E1E92ED5
:1011C000F12C012D112D05C088E1E82EF12C012D07
:1011D000112D80E290E0A0E0B0E08E199F09A00BF5
:1011E000B10B04C05695479537952795EA94D2F7E9
:1011F000F901E95BFD4F2081821B9109A109B10929
:101200001F910F91FF90EF9008959F92AF92BF9220
:10121000CF92DF92EF92FF920F931F93EE24FF2461
:101220008701FC012481358146815781918080812D
:10123000823010F44061A2C0843009F49BC0823037
:1012400029F420E030E040E050E005C021153105F0
:101250004105510519F4E0E0F0E092C082819381EC
:101260006FEF823896070CF05AC062E87FEF681B78
:10127000790B6A3171052CF020E030E040E050E05D
:101280002AC0AA24BB24650181E090E0A0E0B0E080
:10129000062E04C0880F991FAA1FBB1F0A94D2F7FD
:1012A0000197A109B10982239323A423B5230097B1
:1012B000A105B10529F071E0A72EB12CC12CD12CCC
:1012C00004C056954795379527956A95D2F72A29F0
:1012D0003B294C295D29DA01C9018F779070A070F4
:1012E000B07080349105A105B10539F427FF09C01C
:1012F000205C3F4F4F4F5F4F04C0215C3F4F4F4F2B
:101300005F4F80E090E0203060E0360760E0460705
:1013100060E4560710F081E090E0FC0123C08038C3
:10132000910544F5FC01E158FF4FDA01C9018F77BF
:101330009070A070B07080349105A105B10539F4AA
:1013400027FF09C0205C3F4F4F4F5F4F04C0215C17
:101350003F4F4F4F5F4F57FF05C056954795379505
:101360002795319687E056954795379527958A9525
:10137000D1F706C020E030E040E050E0EFEFF0E0D1
:10138000E22EF32E942F9F77802F8078892B9E2F2B
:101390009795992797958F77082F092B9E2F9695CC
:1013A000812F8078892B9794992497948F77182F81
:1013B0001929C801B7011F910F91FF90EF90DF909D
:1013C000CF90BF90AF909F900895CF93DF93FC0193
:1013D000DB01208131819281492F4F7750E0991FA5
:1013E0009927991F8381E82FEE0FE92B6E2F70E06C
:1013F000881F8827881FED018983EE2371F5211549
:1014000031054105510511F482E02FC06E5770403F
:10141000FD017383628367E0220F331F441F551F52
:101420006A95D1F783E08C930AC0220F331F441FC3
:10143000551FED018A819B8101979B838A83203010
:10144000E0E03E07E0E04E07E0E45E0770F3ED0108
:101450002C833D834E835F8325C0EF3F79F42115B4
:1014600031054105510519F484E08C931BC044FFFC
:1014700003C081E08C9311C01C920FC06F57704065
:10148000ED017B836A8383E08C9387E0220F331F17
:10149000441F551F8A95D1F75064FD01248335837D
:1014A00046835783DF91CF910895CF93DF93DC017B
:1014B000FB019C91923008F446C08081823008F490
:1014C00042C0943049F4ED016981843079F581811D
:1014D00090E0861B91093CC0843021F0923031F4B9
:1014E0008230A1F18181882371F52AC0ED016981E3
:1014F0008230E1F081816817C9F4ED012A813B81D6
:1015000082819381821793078CF028173907B4F0F2
:10151000ED018C819D81AE81BF8124813581468121
:101520005781281739074A075B0718F4662341F4E7
:101530000AC082179307A407B50740F4662319F47D
:101540008FEF9FEF05C081E090E002C080E090E067
:10155000DF91CF910895AA1BBB1B51E107C0AA1FC1
:10156000BB1FA617B70710F0A61BB70B881F991F44
:101570005A95A9F780959095BC01CD0108952F92B9
:101580003F924F925F926F927F928F929F92AF9213
:10159000BF92CF92DF92EF92FF920F931F93CF9360
:1015A000DF93CDB7DEB7CA1BDB0B0FB6F894DEBFF7
:1015B0000FBECDBF19942A88398848885F846E840D
:1015C0007D848C849B84AA84B984C884DF80EE8067
:1015D000FD800C811B81AA81B981CE0FD11D0FB670
:0E15E000F894DEBF0FBECDBFED010895FFCF22
:1015EE00333700494F20457870616E73696F6E20F6
:1015FE0041544D65676132353630200A0D0042790F
:10160E0074652000203D20003331001B5B303B0011
:10161E003B34306D001B5B324A001B5B00C0000088
:10162E000000000000000000010202030303030497
:10163E000404040404040405050505050505050553
:10164E000505050505050506060606060606060633
:10165E00060606060606060606060606060606061C
:10166E000606060606060607070707070707070703
:10167E0007070707070707070707070707070707EC
:10168E0007070707070707070707070707070707DC
:10169E0007070707070707070707070707070707CC
:1016AE0007070707070707080808080808080808B3
:1016BE00080808080808080808080808080808089C
:1016CE00080808080808080808080808080808088C
:1016DE00080808080808080808080808080808087C
:1016EE00080808080808080808080808080808086C
:1016FE00080808080808080808080808080808085C
:10170E00080808080808080808080808080808084B
:10171E00080808080808080808080808080808083B
:08172E0008080808080808007B
:00000001FF
